:100000000C943B100C9458100C9458100C945810ED
:100010000C9458100C9458100C9458100C945810C0
:100020000C9458100C9458100C9458100C945810B0
:100030000C9458100C94F9120C9458100C945810FD
:100040000C940F110C9473110C9427110C945810EC
:100050000C9458100C9458100C9458100C94581080
:100060000C9458100C94F0100C9458100C945810D8
:100070000C9458100C9458104263376E7634735AAF
:10008000774F6A50636A30474A6377694E38552B19
:100090006A355052486F76524641684D426F45630B
:1000A0006E6B65334138332B7A544969574B6A5527
:1000B000376E5664743455654839754B67454B61E6
:1000C00043495A4464654A4B624C4B6675466A6FB5
:1000D000336D73713450513748554961334F5A4924
:1000E000395336584639653368782F544E55616A0E
:1000F00044566F745371554F5336427A4B4F3733D2
:10010000613744373749784762374A36634549682B
:10011000414E6D54574661727857644D61354F5664
:10012000326A5335545141417A442F6776666A38B2
:100130004D7344446345496841466E542B496244BB
:100140003866324255593748382F786450376B41FA
:100150007A442F6750546963677068764A6D6C6F94
:100160006547564E4E3732436A554E65596B743566
:10017000724139347646347637546E7778754A4B07
:100180004772703733526435674A734359486E304B
:100190006E4C454A5036346F456771506E50383258
:1001A0006E7A5146686859766B674B6B4450386479
:1001B0004D336249544B5A5437475A7A3050612B69
:1001C000737433345543706132516851442B333763
:1001D000336B4D6A453439414A724E7475792B6DD3
:1001E00032746C53345A346F42496F6C677875308F
:1001F0007A36646C6D736651524E4A396E57796E19
:10020000714C44476858776C3843435970646A6846
:100210004852344E79682F556F6C48302F36325023
:10022000526A664E4A6F47545556773643694E6355
:1002300034524357654479656166736861695954FE
:1002400038306E764638526946385469562B5479A0
:10025000333642516A74527145385A6A532B7031A1
:10026000514C4F46754444377035784F6759386262
:100270005558533633624A5A3950646C4F67484A6E
:100280004D577534695361746E6F616232656A37B8
:100290004E5046766F697452596A53676D6C6D643F
:1002A00068626D707777757247524841724959415B
:1002B0006B586667786A2F5164466E73616D573369
:1002C0006D31436C6B6E2B4A424B5577684E5951DA
:1002D0006C453955747145416E4B585764373865D4
:1002E0006B397958452B75336737495430616A62E9
:1002F0004E6374694E555369317254616175703142
:100300005954504675562F7A6F6F37484F455039BC
:1003100070564630766430796E70424949354A4AA3
:100320002F33772B47464E3159624F4647592B6240
:100330006C68514B4174357662476C6F4D786F4EE7
:100340005861324B777237664E45562B75414E6475
:1003500039666D67563668554C52565772496D5915
:1003600053365A54636D597A776A36666C4A5757D2
:100370007A4C6D4152364451627A516143747274C1
:10038000725656327641466371566433344B384C5C
:1003900033724459362F5A375A7578325045463899
:1003A000764E387A7744347656485857394B572B1F
:1003B000774C2B7A47744A5A6262547162326F31B9
:1003C0005153504E505231534C736A6B39586E67CB
:1003D0003933693832652B72446C67736B637335DC
:1003E00052794151443454433569795754486E67C2
:1003F000647A67636955662F4A4531364F734A6898
:10040000613762624E6B516946745271736F624418
:10041000756F4A42657A3666464E57325848486B81
:10042000634C6B41686342324E356A6134664D7A83
:10043000536163505848466B74566E772F33772B51
:100440006D4A4F566B5574355A3742597131617246
:100450006A706A4D3458506C4B52645863476476E6
:1004600062476C6F4D35724E5052335362756A302D
:10047000666230436868794F51482F6A4B73726CDB
:10048000716463335150386A537670395A54464513
:100490004A5A455544595565694A75526B306F6CD7
:1004A0007965637654486E67647A67636963652F1C
:1004B00068423153726F68454A5246554C5A5757F5
:1004C00079446E41355044342B33362F42463379CC
:1004D0002F69415144775143427478754D45662FD9
:1004E000704131614B73726C71646533414E387A7F
:1004F00077723766744156657141765A4E78694D08
:1005000051364D4E324F303945745A383769674449
:100510006955587065324E74625456477041336164
:10052000617572316F564E3134664F6C6963652F59
:10053000424E30796E68414941774B426D38376E93
:100540007149755A46776945785746734D527652C8
:10055000733972744C4256574B736D6457793679C0
:10056000454E6353514839473671727773647555F8
:100570004267496B5761375873496366314C574737
:10058000784431434A6B796D314C57475250326948
:10059000566E51366D704C4A76397A75634F637674
:1005A00054506B676C38686B74566C777639787515
:1005B0004D45642F3536304B4274374B4C456E6495
:1005C0002B2F356134613276774C37497441584A64
:1005D000614F752B6A305369566E51366D704A4AB9
:1005E0002F2F7A2B654F4D747A5756757341666677
:1005F0004E45582B654F4D745461574F51502B6ADF
:100600006970724E505A30536A68694D51614D4E4F
:100610003365327155765A373571785772416C5956
:1006200071395A7237696955544B574F786A2F722E
:1006300075674B706D3036504339755A4277494271
:100640003232363367422F544D735A6A36696F56C9
:100650005553764A5078774F414E387A77723566DF
:100660003943584F59473972627568307656337935
:100670002F6943517A2B54792F6941516A38546953
:10068000647554796675427776317775454E653372
:100690004146397A3471375873496566464E55324A
:1006A000484E4530485932617972706464546E41E5
:1006B0005A7A41596930596A537670393566456BB3
:1006C0006C636B34473435482B4B4D4E3357317187
:1006D000736F5A44656D4B7867384A68617A616216
:1006E0006C68514B676836504846463076643279BC
:1006F000586E41346D38376E7149735A312B6830FA
:10070000766430796E68414941344C424F783450B8
:100710005850476B56616D49772B4C786F314B7051
:10072000443454435A6D79325848466B4E686E5182
:10073000362F52494F734C547131595A797A697531
:10074000792B63767A446C417031416F6B306F6CFA
:100750007957667672496D59792B5A7A34693658C9
:100760006B4266584D4D652F684A3253546E693856
:1007700032653872546E673847592B62467454712B
:10078000636D617A41743576374B6D4951364C5201
:10079000733970743758566D4E45564B75414E70CF
:1007A00039666B55463468774A5A45676963554BD5
:1007B00047314E4359624F7947512F73746F54310B
:1007C0003569796854506B586C386A5464626B337D
:1007D000683842584E35683749524E693950735718
:1007E0007957597A7772376674415865614F7370DB
:1007F0007A2B54792F79435179575346336A41768E
:1008000043345A30656D4B47417749325736376725
:100810007459656F466C5632764146634B52665842
:100820007349633756485843646D564B745965662F
:100830006C4A57577A446C417031416F4577714625
:100840006D632B37426C777545466433594F2B7275
:10085000447468734D52745238337139685548384E
:100860006562384432724C5A7439687373567678BC
:1008700070564B70446F5231706F78784A55334ED2
:100880002F4349523032713141594F6446596D59A5
:1008900053795954306A5962567654362B69495205
:1008A00055367056636275686D383548616D764AA5
:1008B0004B68514B416C3676444E6B776E30776D9A
:1008C000464E55326E4248553758586D394B574F42
:1008D000774C2B446D68494A33327932334448456A
:1008E0003566456B6C556C344F7834505850456BB9
:1008F0006C556E3465373566644F57755548666E6E
:100900007149735A567967554351566571777474B6
:10091000647A676F435965726B70556969706B5182
:100920006A55534B566E515347744C424C3552697D
:100930006F67347632724D74584B2B4C486C436F52
:1009400055796F563065757044775343786A796589
:100950005350736853365A54387162544D73626AF7
:100960004B6B6F6C796565766A4A6B516A38526970
:10097000746F544335717A57374B6D49772B4C78E8
:100980006F314B70443454435A6D77326E4A45553B
:100990006A55582B2B43504E505233536275683072
:1009A000765631797667434178324377332B7A3202
:1009B0002F4B454D67634D395253484D5A5450465D
:1009C0004F68394963755A6F3471374D4E73656B93
:1009D0006852315372676945786545734551765A57
:1009E000743968737364757867384C6871395A72F2
:1009F00062756A302F58336964755479666D417732
:100A00006E38786D74415865364B754A487779472A
:100A100052503069466C5371306A6162467452714B
:100A20004D6B596A537672394A5246554C5A57574C
:100A30007A4C6B41427741416830416746346A45A0
:100A40005A624745785746737356767849354A4A0D
:100A5000663778654B4574355A3742597139627239
:100A60004C63686B4D526C517231537155766237DD
:100A70004A6B776D6C4256574C456C3475393576F8
:100A800062476E6F382F70395A5446457056483059
:100A9000665433435A757832764148633666636EDE
:100AA000796275426E63355561477461627A53703D
:100AB0005376724F4A52486E3766575655665756A8
:100AC000566E586D3943584F34432F4C766F424120
:100AD0004A35424949354A4A2F2F7A2B2B4B4F4EE4
:100AE0004851336161757031595450467639387ABE
:100AF000777A362F464658572F4B457367634D64B8
:100B000052534873346E4E463766636E5350756861
:100B100069385A6A36717056635474422B2F352FD8
:100B200059753271307A61374674544B3871627A34
:100B30004D735A4436717031636A76685035355555
:100B400066474833386673367A6D616F6742365050
:100B50006E4A455544515865364B75534834786450
:100B60004A453368656D497177324B7142344C6147
:100B70004F42346133444652706447683357332FD1
:100B8000386961476B7861656D4A42696F394C44D9
:100B90004C785367517635565A4F3241306A5978FE
:100BA000307A537779446F6431656D6F302B7031D3
:100BB0005A374F4647413938397152314C306744C2
:100BC00045346B596938626A716F724675562F7A6F
:100BD0006F67344857484E6C6154644865474E749B
:100BE000625456474A4D303647744A7062375461F2
:100BF0006175703134664F6C435965666C4A57575E
:100C00007A4C6D41782B42775078794F77442F4456
:100C10004F734A68362F62374A737A6D644F57753F
:100C20005548646E364B754A483478477041336195
:100C300036717256735676784978494A332B7A3230
:100C40002F43484D595450464F5A2B5445745A72AD
:100C5000376969555343584F596D2F72726769450B
:100C6000786547735561754A6E387A6D6447567575
:100C70007341646663655775556E6376364B76428D
:100C800048777A4F524830714E6B547131545453F7
:100C90007A72706464626B4168384467392F6A38CD
:100CA0002B66386A536E6F395253463549524E6738
:100CB000636275306D383553614F7563696B535896
:100CC0005548533632624B534E78684841594E5717
:100CD00031656D6F55796F565561734A333277328E
:100CE00048464630505A3053447468734D527652D9
:100CF0007339727472565832664746734D5A73523E
:100D0000302B72316F644D3177574E7462545847AF
:100D10005A4F3271556E5937787278657149735AE6
:100D2000563668554C5A57577A446C417046416F55
:100D300046346F4E6562394C326A4C5246776A4D82
:100D40007857456B7374763568304B6843775944F0
:100D500032724C5A74396A73636275424734374849
:100D60004F454E393558466B4E5A6B516A38526969
:100D70004E6B5369316A5361537672394A5A4555FD
:100D80006A55582B2B434E4E666230436868774F46
:100D900041462F7A6F6F374875494D6431656B6FE7
:100DA000453470462B662B6A436C71746A55582B18
:100DB0002B4B4E4E5853324B5975343359472B7287
:100DC0004C73696B64546C414A784149417749429C
:100DD00057793658454E633377442F44756F4A42EE
:100DE0002B33362F424E30796E68414941774B683C
:100DF0006D383548364B7370587979327A626D6741
:100E0000515341516A38546939695353547668389B
:100E10007556397A347936586C6864793843647118
:100E20002F4B477051534E6F6662326E5248796253
:100E300033624F4647513962646D51794874446F4B
:100E400038336F395261474D51534E4E2F663069DA
:100E5000466C537155766237706F78474A4D32361B
:100E6000326A4B5A6C30696B31576C6F4D52714E10
:100E70006D4D3076476C49387A2B526E5073423143
:100E800074396A353876733054795A5730725965E7
:100E90003971535837696A525453574C5A4F2F750A
:100EA000694A684D70564E51345850414B5A6579D5
:100EB0004546645359472F4F4B6B67426C6B6C34FC
:100EC0004F7836506E4A47555453574C59472B75F7
:100ED000716F6942356E486B64626D41527943515E
:100EE00054365453626D67304751336161656F6C9E
:100EF00034664E3153536366664F48383057753504
:100F00004B685261674A3750764146634B5A635883
:100F10005548646E61477470627A51616970724EAF
:100F2000505A30536A70684D6F644D315244564E7A
:100F300066367379686F702B6F426C72646E4943CA
:100F4000486B61595661706C634C734257793458E1
:100F500030794848764A5736465A382F69394245DB
:100F6000366A7956455A305A312F373066617343A5
:100F7000686F704F6F412F624E73526974684B43B4
:100F800078717265364C324A48347A475A47317123
:100F9000736F62444F734A686154616245384B71A4
:100FA000636D5A7A516D682F784373437068724746
:100FB0005147756964664C796675427750357A4F4A
:100FC00059472F72726F6A453448486B64376C51C9
:100FD000427742516838417774316A385554305AF3
:100FE0002F32712B3243584675556C7A346A6958E2
:100FF0006B4148584D4D632F52477469734A4C43B7
:101000005A2F7052764A6337445A453456324E6DE1
:10101000744156654B4D7335783241776E30796D3A
:10102000305458475A6D30744D6B5A6B536D7A3645
:1010300068646437475A6E636C68534B77723766DF
:1010400074415865614F73707A2B527976674341CA
:101050007832417748777747424E3279586D61341C
:10106000577A69586B414858734A4566564F4F6DD9
:10107000314458475A4731714D6B616A69686F4E08
:101080005862754B77716A664E464E2B75425864AE
:101090004E593851697354693943544354766973CE
:1010A00065616E546D6F515A2F6D70756E6F55314D
:1010B000555376707639784F7349632F314C556D9F
:1010C0004146335366666277663778654B463135FD
:1010D0005A365A59713844727267674568554638AE
:1010E0004F52395438715A54387162544D735A6A98
:1010F0003672785663613042322F6A334A646D37F4
:101100004245714A554F4541794B306D322F6851F8
:1011100059666D4D434D35737364757867304B6810
:10112000433462444F734A686136426264764A7956
:101130007678614151545A5344784C4178716F63C9
:10114000726F7462567167514C5A56536A413855E2
:101150004C34494F6F426A444863575641515039A5
:101160004E5A6B776A3852434E7352434D30534355
:101170003144516169686F4E3366757130714462F4
:101180004E6C4B6931725261716F70462B58396ADF
:1011900036717056636275426D38356E6147747092
:1011A00037335136476B537069644A6974354C69FB
:1011B0005A7672572F4464736F6357566739576472
:1011C000413565637A33457637436B4949784A4AF6
:1011D00058797A5754486B67733168734567765A04
:1011E0004E356A4D59544E466562384432724A5AF9
:1011F000643768634B5A6358304C654847465031F2
:101200006F5650316F644F316755503970564630C4
:10121000505A30534474693838587378617A5A4C4C
:101220003172514B726770565769394C666D43770E
:10123000587977576A426E51372F52364F734A6842
:10124000617A6162466C51716B68594C336A4359DB
:10125000537961546B68594C58764434657A3666D4
:101260006C4A566344466D362F2F77307549505877
:101270006B636C796D4D356E614F75706A3852696C
:10128000746F52434A737A6D644F557545466433A3
:1012900059473972376967556A63552B474E4F3145
:1012A00041594D6431576E6F382F70395A4C47454C
:1012B0007732484863447671505236504846483039
:1012C000666232435148772B47644D5752364F750B
:1012D0006E4D3236576E4935527941514449544327
:1012E0003469796C7A7A6E7A342F4434653735668E
:1012F000394B574F774C2B4447744A70373351362C
:1013000047744C704C35544B5A323433776A3972C7
:101310002B714A3538336F565261476B51714D6CA2
:101320005753334B59753733705938625648514BC0
:10133000476C497054365253726767456855483850
:101340002B662B6A436C7174445156657149755A0A
:101350006C30696B31576C6F743972744C70576DA7
:1013600054506B51463468304A5A476B7A3258654C
:10137000395364502F43464D6F644F31415150648F
:1013800074566C775078794F5148396A615771318A
:1013900042594D6D30476C547364727472565632B4
:1013A000764945636963632F7844314370677947B1
:1013B00078443343592B78327667476361546448E5
:1013C000654F4F74445156654B457435352F423443
:1013D000753136766A706B6769735469644F5279F8
:1013E0004F304477302B696B666A334335717A57D7
:1013F00037436E49342F4A355A7A4359534B625416
:10140000746F595466324C6868554968794F613732
:10141000496B35767944734A657A35585633577532
:101420006347587563476476624F6D6F557971569F
:101430006B307435597241494B7862626E70435912
:10144000342F49705A544449547162544D6B596A4F
:101450007972706464546C414A354449597A495AE6
:10146000313269303357337138715A546447597A7D
:101470007737354B394358625A75382B7A3768635A
:1014800071646333526E2F6A7134716C50352F7AE8
:101490006B35624C506B416746346A453448466B45
:1014A0004E786D4662375350366970413057753803
:1014B0007239532F636D626D676835615850467895
:1014C0006B636C746D4D376E7241765A7446675813
:1014D0004659756946496A455A6247455261474DC2
:1014E00077654D745461554F414E387A5158362FB7
:1014F00067423348626D69685853336634693443D0
:1015000030376553486C4E315A4C4F6C6D552F62D5
:101510007067796D784C3069684970754A646B37CB
:10152000787170654B4D733552794151446F544316
:10153000594F784776494573695564505A4F306121
:101540006B35623775414141683842674E78694D65
:10155000516150466E5533362B714C524D35724E9B
:101560007531317976774459523643496162534334
:1015700036796F5630577470372F52364F734C6828
:1015800072745A72374367734341566D4B6B73796C
:101590003476437A2B58342F525030696C70524B4A
:1015A000496B346E794474426537376673415665CA
:1015B0004B3875614234446A5A37423771395A4957
:1015C000367168334B35575753506C6C46496742F8
:1015D00049524542726C556A75414562716C637738
:1015E0005A47396337616A6A366655654639574FD7
:1015F00032444645705648306662304342747A75CC
:10160000384364502F43484D59624F466D632B3722
:10161000424E7A7564656476546E6B674D52674DC1
:101620004277503974566E51666A772B6A707352DE
:1016300055367056635474422B2F352F3543314B3A
:101640006F6734485748506C4B5266584D4D652F64
:1016500042463179766F44415A374459362F5A37CA
:10166000594777326E524765362F58733162574764
:101670005250326955505436652B4B724A59515469
:1016800066696F6569413152382F72396F4E453046
:101690006E3831744839492B625451374374704D58
:1016A00036505748316A564770493261547672391C
:1016B000707447683357332F396959475566623715
:1016C0006F6F7A475A323267647561356F513448AB
:1016D00057504D6C7957647637436C49494A4A4AAA
:1016E0002B337A3257484F747156652F494D397AEA
:1016F000527677324F454D315A62464D42514755E9
:10170000617A6350665750744C52585762476C6FF9
:101710004D35724E764E30794746447255716F574B
:10172000647A754B4F6837456D7045554459576518
:1017300079433142657969666C494F575447386936
:1017400074316973555374522F32716D324B554653
:1017500057532F4C506B4477563667457256556D2C
:10176000504D46734759394C3172514B4B6B703168
:1017700053536566756F484D54796450666D4645A0
:101780004D5A7335566971394534735A5636685512
:10179000714E5532487447583365304A456C61493B
:1017A000447468504E42767974566F745469556526
:1017B00049452B72706F79575A4730364D73597AB5
:1017C000366972466B63767068384377394737738A
:1017D00033666B627A713773617265336E49576E27
:1017E000455A32726C4D6A5738666D67567969553D
:1017F00054624D4F67496B54556E59375276782B6A
:101800004F454E395A5448453566476B56616B49CA
:1018100041774942577A69586B4146586348487640
:101820004C4E395147356A6A7542563539666C6F88
:101830004677684D425145557163462F526D6C6A2B
:10184000367A7931455176357356674D6B45763525
:101850004A784349772B4A785A724C5A4E5A674D08
:1018600070464D31342F4D6C536247506E41645574
:101870004B4A5557447339516D6B7A47566D4E6DCF
:101880004E4E4F2B58504F6C436F6347314B4F6652
:1018900077437662355471577A446E41342F42341F
:1018A0004F42362F6E4A476B796555656B786458A1
:1018B0006347647637366D4952794A4255447A46D1
:1018C0006C56333570385A6F73316F745453564FAA
:1018D000494D383752767A2B2B4B4D4E3357317159
:1018E0004D4D626A7277704D57792B437577414140
:1018F00068304367563668554C5A575754506B6793
:101900006C38686B744E6D7757617A6D374B6D34F8
:1019100051364C6873397264724658476575457321
:101920006B56315A5A365A344B7861724874424970
:1019300073316F747A6555754673453351576D6AC7
:1019400071687A4648342F626C774B4B516E342F56
:10195000516E31694E305353316A53715450724E47
:101960006F3945306E30336465754A575936542B9C
:101970004E773672524350715077765362756830A5
:10198000505A3253546E67386D6338375276782B1D
:101990004F4D4F396864653832586E72726F6A45C0
:1019A0005A5448453558486B64626D41523642512D
:1019B0004C42514B686837596E4A48447A755835DD
:1019C0005650656E694A735255367056386675685A
:1019D00043345A442F694B526B4D7253724E6541DA
:1019E00067682F544D6B596A536E71394251486381
:1019F000615464482B4B4F4E474930616942724EE7
:101A00006D383336327A495A312B68304F3532537C
:101A1000542F676375562F7A496B366E4346747838
:101A2000596A4B5A6B556966312B6D5456716F4428
:101A30006372745858533458316266636D784D4FF1
:101A4000396675684377614447744C704B78534BE3
:101A5000516635635A47314A4E3061416942704898
:101A6000577932415932363367422F5473704244AA
:101A70002B7254524D35724E766430796E684349FC
:101A800077654A785A6A4975314769445779314BC5
:101A9000703435792B434E342F6E3158736F544365
:101AA0005A757832764947637965637679546E4121
:101AB000355843495736356E634F636654486C5109
:101AC000743968454D5A733555796F39557976684B
:101AD00075747975387963502B4B454D67554E3980
:101AE0003566476B31576E6F38336F39786545739C
:101AF0006B63733551534151446F51524A73786D42
:101B000074495765795474422F6637617049322F92
:101B1000536E7159425146354B706579464666336E
:101B20004A452F377051784E415632352B43435139
:101B30005443544B7A6A6845444165487467583742
:101B4000614F734D79575358333742594B35624C77
:101B5000766741416830436756366A553766576D38
:101B6000314C574752483369647554792B7142514F
:101B7000724E5452642B62496F4935382F714D3281
:101B8000334F3271306A6162466C5171453162681F
:101B90004346697330657370547152537149686973
:101BA000705648536654316B706F7867703575386E
:101BB0007A717A644E5A6D5154365253726F684539
:101BC00070644530477733616132707977654D7461
:101BD0005453564F6F493862563351366E4A494D09
:101BE000663777624B6B7338597242594B42594C86
:101BF000326A4459547962546C4A624C4F6B446760
:101C0000563669553658576D3979584F594F2B729A
:101C100044746A73385876684C52594C5833435957
:101C2000573637337349652F6C5A573253766C6C7D
:101C3000463469423566486831656E74557970512D
:101C40005561764D6E38796A64484F726465647187
:101C500054766D67313269305861324B5176352F89
:101C6000354B304B67703750504D473857612B4CD0
:101C70006E684349772B4A7834334935782F5A7741
:101C800050357A4F594F387254766A382B762B6A12
:101C90006A70706C6654337135717A2B37696C6772
:101CA0004A704C4A763179755548666E7141745A5E
:101CB000647A6963796565766A4A6B516A455369E6
:101CC0003072514E4B386F796237634832444D64FD
:101CD0002F483837614772766773506E41514663BB
:101CE0004B5148584D46462F594874714D64437ABC
:101CF0007142785633506B72547537382F326C6A94
:101D0000612F785659544E6C65622B6A6D68497024
:101D10005753773243746B776E5578786C785742A7
:101D2000614F6B6F4534704665622B446D704A4A53
:101D3000663778654B4631355A7A415943345A44AF
:101D400065754A785A6A4B5A6C6368664D786C516F
:101D500072565277464E62724C73686B74646B773E
:101D600048777747684A3253546E693857612B4C2D
:101D70006E676149773249787732497851794B52A9
:101D800046676F46334F2F4A6968674D42774E6406
:101D900039336D72636268634B5A6558454E6533DB
:101DA00067422F54736F6244756F4A42657A346696
:101DB000314C574778723243512F793766574F6FFE
:101DC0004C355557446C6E77657277624B45753864
:101DD0004A78424E68384B6B4B4A6172764A61676B
:101DE000346D6134322F6A336F41396264664A79E7
:101DF0004F6C6246305768524734306169527059AF
:101E0000573630714174375072496D347947615497
:101E10006842365047644867574B3365776236628D
:101E20004D73552B6D4A50434649764F45596A4587
:101E30003576467846516B4E4B356165507341316E
:101E40004E786A5A77485734713050326647487333
:101E50006362734257793458316A64482B614D5735
:101E60003365307845746277713468667031483014
:101E70002F583369646D5179486C436F55367056ED
:101E80003865306853365A5438716254736F6244FF
:101E9000504D4C687174614F726F6768705647524D
:101EA000654C316E424E78754D4D652F684A305302
:101EB0006A706A4D3465556C795766764C4D6B3453
:101EC000477869486D784E563966754A433544728D
:101ED0004F6C534A44675972586E4935777543546D
:101EE000663670657141765A743967357355326B51
:101EF0006F564C38697352694D6B53693162534E5A
:101F0000366A775631657370544B54703772357634
:101F10004C52587436696C7A6F4E4B694B52514B28
:101F2000684A36594F4547722F2F2B6A446C7234DA
:101F30004441574C376976784F7877326735385453
:101F4000317A59623144524243646F32616255477B
:101F5000424631797667434178324377332B7A3280
:101F60002F4B474D775750744C5A575754486C670E
:101F7000743169735561734A5879775744466C7761
:101F80005078774F674A2B546B68594C33696159C5
:101F90007932617A417437764C4D6D3457533458E9
:101FA000565866484B4D755A423444675937423447
:101FB0004B42614C6D5A444935504C354942414978
:101FC00068454B686A45616A445671744367586551
:101FD0003736734A324F783275774663727463339B
:101FE00078372B4448644A70614C52614C556F6C91
:101FF000546964502B36454D426F4F646B6B6E34A1
:10200000664C37664D38572B33374D4658692F4C41
:102010004F5541676B45696B55716B4942494A425F
:10202000664434665533586D3879584F3579394C94
:1020300065574377324777326D3547555369584F67
:102040005A2B387279626A6362726348582F4D6CFA
:102050007A75637679376B41414942416F4E426FE1
:102060004E426F4E5769314B7051344858334E6C65
:1020700062726548000011241FBECFEFCDBFDFE3C1
:10208000DEBF28E3ACE1B8E301C01D92AC33B20778
:10209000E1F718E3A0E0B8E3EDE0FCE202C0059050
:1020A0000D92AC31B107D9F70E9448130C94BC15BE
:1020B0000C940000FC019191911101C00895809150
:1020C000040885FFFCCF90930208F5CFE82FE29536
:1020D000EF70F0E0E451F4459081906890933438CB
:1020E0008F70E82FF0E0E451F4458081809333381D
:1020F00008958091040887FFFCCF8091000890E04C
:1021000008959091040895FFFCCF80930208082E53
:10211000000C990B08958091133890911438A09178
:102120001538B091163880FF2DC0809113389091EA
:102130001438A0911538B0911638B695A795979593
:1021400087958093133890931438A0931538B093E3
:1021500016388091133890911438A0911538B091A9
:1021600016382CE5822723ED92272CEBA22724EBAF
:10217000B2278093133890931438A0931538B093F6
:10218000163808958091133890911438A09115381D
:10219000B0911638B695A79597958795EACFECE755
:1021A000FBEA90E0282F30E04191042E000C550B03
:1021B0004217530719F09F5F9034B1F7892F0895A4
:1021C000809100389091173890930038282F292B50
:1021D0002927209320388095892380931F380895DC
:1021E0001F920F920FB60F9211248F939F9380919D
:1021F0003538882389F0909134389093C4088095BD
:102200008093353881E08093960A9F918F910F904B
:102210000FBE0F901F90189590913338EECF1F92FC
:102220000F920FB60F9211248F93EF93FF93E0E07C
:10223000F4E082E08683858380E88093C308FF9181
:10224000EF918F910F900FBE0F901F9018951F92D6
:102250000F920FB60F9211242F933F934F935F93DA
:102260006F937F938F939F93AF93BF93CF93DF939E
:10227000EF93FF93C0911938D0911A38C130D1052E
:1022800079F048F0229761F181E090E0809319386D
:1022900090931A380DC08CEF9BEA0E945A10F4CF2D
:1022A00082E09CEA0E945A10C0931938D0931A38E1
:1022B000809105088F7D80930508FF91EF91DF9154
:1022C000CF91BF91AF919F918F917F916F915F91CE
:1022D0004F913F912F910F900FBE0F901F90189527
:1022E00089E09CEADACF1F920F920FB60F92112469
:1022F0002F933F934F935F936F937F938F939F930E
:10230000AF93BF93EF93FF939091000820913138E2
:10231000309132382130310509F4BFC048F0223005
:10232000310509F422C1109231381092323844C07C
:1023300020912F38309130382230310509F453C0C4
:1023400060F42115310581F12130310509F445C0D2
:1023500010922F38109230382FC02430310509F4F4
:102360007BC050F12530310599F740ED490F4A30D7
:1023700020F08FE9890F863060F420912E3880EDAF
:10238000820F8A3008F46FC08FE9820F863008F41C
:1023900068C081E090E08093193890931A381092C9
:1023A0002F381092303831C09C3531F481E090E004
:1023B00080932F3890933038FF91EF91BF91AF9178
:1023C0009F918F917F916F915F914F913F912F914D
:1023D0000F900FBE0F901F9018959C3509F0B8CF45
:1023E00082E090E0E5CF9337B1F410921938109263
:1023F0001A3881E090E0809331389093323810920F
:102400002F38109230381092183880910508806269
:1024100080930508D1CF9437A1F410921938109207
:102420001A38209331383093323810922F38109266
:102430003038809105088062809305081092183822
:10244000BBCF993619F484E090E0B2CF993709F008
:10245000A0CF83E090E0ACCF90932E3885E090E061
:10246000A7CF2755330B822F8295807F4A3070F497
:10247000842B80932D380E94661010922F38109272
:1024800030381092193810921A38BFCF2FE9290F1F
:10249000263078F79755892BECCF40912B38509107
:1024A0002C3841305105E1F098F04230510509F0E7
:1024B00083CF933719F51092193810921A38109269
:1024C0002B3810922C384093293850932A389DCFBE
:1024D0009C3509F071CF20932B3830932C386CCF7A
:1024E0009C3539F482E090E080932B3890932C381F
:1024F00063CF10922B3810922C385ECF953679F43A
:102500001092193810921A3810922B3810922C38D9
:1025100083E090E08093293890932A3876CF9037E3
:1025200061F41092193810921A3810922B381092C8
:102530002C3881E08093283868CF9E3669F4109259
:10254000193810921A3810922B3810922C38209388
:10255000293830932A3859CF2093193830931A38B4
:1025600010922B3810922C3850CF40912638509131
:1025700027384130510599F040F042305105B1F013
:10258000109226381092273817CF9C3509F014CFB7
:1025900081E090E080932638909327380DCF9C35CA
:1025A00079F7209326383093273806CF943649F4AC
:1025B0001092193810921A38109226381092273833
:1025C00024CF9537A9F3953669F4109219381092F3
:1025D0001A381092263810922738109231381092FB
:1025E000323813CF81E090E08093193890931A38F5
:1025F000E3CF1F920F920FB60F9211242F933F93A8
:102600004F938F939F93CF93DF9300D0CDB7DEB7D7
:1026100080910804898389819091173889278A835A
:10262000909124382A8180912538892782238093AC
:1026300025382A8190959223909324382A814091BD
:102640001738309117388923922F9423892B8327A9
:102650008093173880912338882349F0809121385E
:10266000909122380196809321389093223882E00D
:102670008093860A0F900F90DF91CF919F918F9159
:102680004F913F912F910F900FBE0F901F90189573
:10269000CF93DF93CDB7DEB72997CDBFDEBF88EDEF
:1026A00084BF81E080936100F89434E0309321048A
:1026B00047E450E1409308085093090890E890934C
:1026C000050890EC9093060841E058E340933838B1
:1026D0005093393840933638509337381092810AE6
:1026E00010928C0A10928D0A92E09093850A809342
:1026F000800A1092910A40E157E240939C0A50935D
:102700009D0A8093950A8093900A90932504909354
:1027100021048093E3059093010425E02093400475
:1027200021E22093C0083093C1088093C20828E0BA
:102730002093140420931504209316042093170467
:102740003093E4051092000A23E32093010A2AEF54
:1027500030E02093260A3093270A2093280A3093EA
:10276000290A20932A0A30932B0A2091000A21601B
:102770002093000A809300061092010620E5209322
:10278000020620E42093080620E320930906909394
:102790000C0680930A0683E0809321047894E5E296
:1027A0002E2EE1E43E2EE4E94E2EE0E15E2E8091F5
:1027B0003138909132388130910509F457C040F09A
:1027C000029709F4AFC11092313810923238EFCF2E
:1027D00011E01093950A20921338309214384092E9
:1027E00015385092163880912D380E94661010933B
:1027F0001838809118388823D1F20E94E010809117
:10280000203884FF12C08091100690911106A0918B
:102810001206B091130680932D380E9466100E9414
:10282000E01080911F3884FFEECF1091203815FF03
:1028300009C080912D38882329F0815080932D384C
:102840000E94661016FF09C080912D388F3F29F035
:102850008F5F80932D380E94661017FFCACF21E04A
:1028600030E02093313830933238A1CF8091950AEF
:102870008E7F8093950A80E88093C408F12CE12C28
:1028800018E100912D38019FC0011124E816F906C6
:1028900008F4A9C010E0CE010896888799876624BD
:1028A00063940115E1E01E0709F481CFC80165E0DA
:1028B000880F991F6A95E1F7FC01E858FF4F4F0117
:1028C00078E0772E44E050E0B401CE0101960E94FA
:1028D000991589810E94CF10F82E8A810E94CF100D
:1028E000E82EF4E0FF9EC0011124FE2CF2945FE07C
:1028F000F522F82AFD828B810E94CF10F82E20E16C
:10290000E29EC0011124EF2CE694E694E82AEE82C0
:102910008C810E94CF1090E4F99E90011124822BAB
:102920008F837E01E5E0EE0EF11C809113389091CB
:102930001438A0911538B0911638F70121917F0114
:102940003197822780830E948B10288539852E1528
:102950003F0559F7AD80B12CAA0CBB1CA0921D38C5
:10296000B0921E38AE81A0931C38EF818E2F8295D5
:102970008F70EF7034E0E39FF0011124E454F445CC
:10298000C080D180E280F380082E04C0F694E794E2
:10299000D794C7940A94D2F7C0920F38D0921038C7
:1029A000E0921138F0921238811123C01092380A47
:1029B0001092390AB0E0A70196010E94A215672F74
:1029C000782F892F992760933A0A70933B0AA114B4
:1029D000B104F1F41092313810923238C0923A0AB0
:1029E000D0923B0AE4CE0E948B103FEFE31AF30A29
:1029F00048CFC092360AD092370AB701A601769521
:102A00006795579547954093380A5093390AD2CF26
:102A10001092213810922238609223380E94E010E0
:102A20008091293890912A382091203827FD05C0BF
:102A300020912838222309F45BC0109223380E9489
:102A4000E0108091293890912A3881309105F1F178
:102A500058F08230910509F448C0039701F11092B3
:102A6000293810922A38EBCF8091203885FF06C094
:102A7000E3E0F0E0E0932938F0932A3886FF06C0BF
:102A800021E030E02093293830932A3887FFD7CFD0
:102A900082E090E08093293890932A38D0CF10922A
:102AA000380A1092390A80910F389091103880932B
:102AB0003A0A90933B0A10923138109232381092B1
:102AC00028381092293810922A3871CE609228380E
:102AD0001092293810922A387A9494E0890E911C29
:102AE0007110F0CE0F5F1F4FDCCE10922838F0CF60
:102AF000039769F41092380A1092390AC0923A0A80
:102B0000D0923B0A1092313810923238DACF80914D
:102B10002138909122388A159B0508F47FCF1092B6
:102B20002338DACF87EF8093343887E780933338C0
:102B30003ECEFB01DC0102C005900D924150504099
:102B4000D8F708950E94AD15A59F900DB49F900DE4
:102B5000A49F800D911D11240895A29FB001B39FE1
:102B6000C001A39F700D811D1124911DB29F700D96
:0C2B7000811D1124911D0895F894FFCFE1
:102B7C004142434445464748494A4B4C4D4E4F50C1
:102B8C005152535455565758595A6162636465668D
:102B9C006768696A6B6C6D6E6F7071727374757641
:102BAC007778797A303132333435363738392B2FD0
:102BBC00748C0500BB3C05007BF1040075AA040075
:102BCC006A670400232804006AEC03000AB40300BB
:102BDC00D57E03009B4C0300341D030076F00200ED
:102BEC00086B44412311104B000302301C60141677
:102BFC002341434B0A00234E41434B0A003F200A1A
:012C0C0000C7
:102C0D00FF00000003000000008110791000007427
:0C2C1D008C050025419410FF010100000F
:00000001FF
